:020000040800F2
:10000000602200202D0200081D2A00081F2A000877
:10001000232A0008272A00082B2A000800000000D5
:100020000000000000000000000000002F2A00086F
:10003000312A000800000000332A0008352A000891
:10004000470200084702000847020008470200086C
:10005000470200084702000847020008470200085C
:10006000470200084702000847020008470200084C
:10007000470200084702000847020008470200083C
:10008000470200084702000847020008470200082C
:10009000470200084702000847020008470200081C
:1000A000470200084702000847020008470200080C
:1000B00047020008470200084702000847020008FC
:1000C00047020008470200084702000847020008EC
:1000D00047020008372A00086D2A0008A32A0008F2
:1000E00047020008470200084702000847020008CC
:1000F00047020008470200084702000847020008BC
:1001000047020008470200084702000847020008AB
:100110004702000847020008D92A000847020008E1
:10012000470200084702000847020008470200088B
:1001300000F002F800F06BF80AA090E8000C82448E
:100140008344AAF10107DA4501D100F060F8AFF26B
:10015000090EBAE80F0013F0010F18BFFB1A43F0A5
:100160000103184770690000906900000A444FF0CD
:10017000000C10F8013B13F0070408BF10F8014B06
:100180001D1108BF10F8015B641E05D010F8016B4B
:10019000641E01F8016BF9D113F0080F1EBF10F8AF
:1001A000014BAD1C0C1B09D16D1E58BF01F801CBD2
:1001B000FAD505E014F8016B01F8016B6D1EF9D555
:1001C0009142D6D37047000000230024002500266A
:1001D000103A28BF78C1FBD8520728BF30C148BFAA
:1001E0000B607047642905F0EB81732905F0BF832C
:1001F000002070471FB505F077FC040000200021A7
:1002000005F0D2FC401C60601FBD10B510BD05F0AC
:1002100046FC1146FFF7EEFF02F0BFFB05F076FC4F
:1002200003B4FFF7F2FF03BC05F0B6FC09488047B2
:1002300009480047FEE7FEE7FEE7FEE7FEE7FEE7C8
:10024000FEE7FEE7FEE7FEE704480549054A064BE0
:1002500070470000252C000831010008601C0020B8
:1002600060220020601E0020601E002031490143F2
:10027000314A1160704770B5002100230F22C47805
:100280000CB32D4C246804F4E064C4F5E064210A46
:10029000C1F10403CA40447804FA03F1847814409D
:1002A00021430901254C0678A155047804F01F0567
:1002B0000124AC4005786D114FF0E02606EB850572
:1002C000C5F8004109E0047804F01F050124AC40A2
:1002D0001B4D0678761145F8264070BD194A0A4034
:1002E0000243154B1B1F1A60704739B1124A121D89
:1002F00012680243104B1B1D1A6006E00E4A121DC5
:10030000126882430C4B1B1D1A607047042808D1E9
:100310004FF0E021096941F004014FF0E022116142
:1003200007E04FF0E021096921F004014FF0E022DD
:10033000116170470000FA050CED00E000E400E0F8
:1003400080E100E080FFFF1F10B50446FA488442B8
:1003500008D10121401501F075F90021601501F067
:1003600071F917E0F548844208D10121001501F028
:1003700069F90021201501F065F90BE0F04884428D
:1003800008D10121C80301F05DF900214FF40040BC
:1003900001F058F910BD30B5024600200023506826
:1003A000E84C20400D790C6844EA05242043506055
:1003B0009068E54C2040D1E902542C434D7944EA41
:1003C000450420439060D06A20F470000C7C641EC9
:1003D000E4B2234340EA0350D06230BD0021016003
:1003E000017141718160C16001210174704721B1C7
:1003F000826842F00102826003E0826822F001021A
:100400008260704721B1826842F48072826003E0AA
:10041000826822F480728260704710B50023CBB2EC
:100420001AB144681C43446002E044689C43446041
:1004300010BD816841F008018160704701460020CD
:100440008A6812F0080F01D0012000E000207047F8
:10045000816841F0040181607047014600208A688C
:1004600012F0040F01D0012000E00020704721B1FC
:10047000826842F4A002826003E0826822F4A00253
:1004800082607047014600208A6812F4800F01D014
:10049000012000E00020704710B50A46002100232B
:1004A000416821F46041531E41EA4331416010BD6F
:1004B00021B1426842F40062426003E0426822F4E3
:1004C000006242607047F0B504460D4600200021EE
:1004D000092D11DDE068A5F10A0606EB460707269F
:1004E00006FA07F18843A5F10A0606EB460603FA69
:1004F00006F10843E0600CE0206905EB450707269C
:1005000006FA07F1884305EB450603FA06F10843AE
:100510002061072A0FDA606B561E06EB86071F263E
:1005200006FA07F18843561E06EB860605FA06F121
:100530000843606322E00D2A0FDA206BD61F06EB1A
:1005400086071F2606FA07F18843D61F06EB8606A4
:1005500005FA06F10843206310E0E06AA2F10D06F7
:1005600006EB86071F2606FA07F18843A2F10D065F
:1005700006EB860605FA06F10843E062F0BD21B1FC
:10058000826842F48012826003E0826822F4801262
:10059000826070470146C86C80B2704766484C3034
:1005A0000068704721B1426842F48062426003E013
:1005B000426822F480624260704721B1426842F48E
:1005C0008052426003E0426822F4805242607047E9
:1005D0000A460021816821F4E0411143816070479F
:1005E00021B1826842F40042826003E0826822F412
:1005F00000428260704721B1826842F40212826038
:1006000003E0826822F402128260704701460020F3
:100610008A6812F4001F01D0012000E0002070471A
:10062000F0B504461546002000220026092911DDF8
:10063000E068A1F10A0707EB470C072707FA0CF25D
:100640009043A1F10A0707EB470703FA07F21043AB
:10065000E0600CE0206901EB410C072707FA0CF27F
:10066000904301EB410703FA07F210432061A06BAE
:10067000C0F30156EF1C06F1010CA7EB0C0707EBCA
:10068000870C1F2707FA0CF29043EF1C06F1010CB0
:10069000A7EB0C0707EB870701FA07F21043A063EB
:1006A000F0BD10B50A4600210023816B21F44011F2
:1006B000531E41EA0351816310BD08B50023009326
:1006C0000090009B0B440093009B1A6008BD08B586
:1006D000024600200090009201F12800009B18447F
:1006E00000900098006880B208BD0A460021416869
:1006F000164B194011434160704741628262704756
:100700000A460021416821F01F01114341607047F2
:1007100040B109490831096841F40001064A08322C
:10072000116007E004490831096821F40001024A18
:100730000832116070470000002401400028014089
:10074000003C0140FFFEF0FFFDF7F1FFFFFD3FFF22
:100750000246002013680B4201D0012000E0002077
:100760007047CA430260704770B5024600200023FC
:1007700000240B125568CEB205EA060415681D4226
:1007800002D00CB1012000E0002070BD00220A124E
:10079000D34303607047000001684FF6FE721140BA
:1007A00001600021016041608160C1608C49884224
:1007B00008D18B490839496841F00F01884A083A45
:1007C00051608AE086491431884208D18449083949
:1007D000496841F0F001824A083A51607DE0804961
:1007E0002831884208D17E490839496841F470614E
:1007F0007B4A083A516070E079493C31884208D11F
:1008000077490839496841F47041754A083A51609E
:1008100063E073495031884208D171490839496809
:1008200041F470216E4A083A516056E06C496431D7
:10083000884208D16A490839496841F47001684A18
:10084000083A516049E066497831884208D16449E4
:100850000839496841F07061614A083A51603CE0EA
:100860006049884206D1011F096841F00F01021F4B
:10087000116032E05B491431884208D15949091F9F
:10088000096841F0F001574A121F116025E05549EF
:100890002831884208D15349091F096841F4706121
:1008A000504A121F116018E04E493C31884208D16D
:1008B0004C49091F096841F470414A4A121F1160EE
:1008C0000BE048495031884207D14649091F096861
:1008D00041F47021434A121F1160704710B5002285
:1008E000026847F6F0739A430C6A8B6823430C69DD
:1008F00023434C6923438C692343CC6923434C6ACB
:1009000023438C6A23431A430260CB6843600B681D
:1009100083604B68C36010BD00210160416081604D
:10092000C160016141618161C161016241628162B5
:10093000704721B1026842F00102026004E00268DF
:100940004FF6FE731A40026070471AB103680B43FA
:10095000036002E003688B430360704741607047A7
:100960000146486880B2704701460020002211F01D
:10097000805F03D01B4B083B1A6802E0184B083B12
:100980001A680A4201D0012000E00020704710F0F0
:10099000805F03D01349091F086002E0104908393D
:1009A0004860704701460020002211F0805F03D0AC
:1009B0000C4B083B1A6802E0094B083B1A680A42D4
:1009C00001D0012000E00020704710F0805F03D0CC
:1009D0000449091F086002E001490839486070476E
:1009E000080002400804024001460020FE4A106848
:1009F00000F03800084310607047FB49096821F097
:100A00000801F94A116011460968014311607047F5
:100A1000F549096821F01001F34A1160114609688F
:100A2000014311607047F148EF494860F048486061
:100A30007047EE48EC494860ED4848607047EA4826
:100A4000006940F08000E84908617047E6480069A5
:100A500040F08000E449086170470420E249C96819
:100A600011F0010F01D001200EE0DF49C96811F03B
:100A7000040F01D0022007E0DB49C96811F0100F14
:100A800001D0032000E00420704700B50246042393
:100A9000FFF7E3FF034603E0FFF7DFFF0346521EC5
:100AA000012B01D1002AF7D102B90523184600BD58
:100AB00030B5044604254FF43020FFF7E6FF054625
:100AC000042D17D1C848006940F00200C6490861EA
:100AD00008464461006940F0400008614FF430204E
:100AE000FFF7D3FF0546C048006941F6FD71084095
:100AF000BD490861284630BD10B504244FF43020AC
:100B0000FFF7C3FF0446042C16D1B748006940F034
:100B10000400B54908610846006940F040000861DA
:100B20004FF43020FFF7B1FF0446AF48006941F6AB
:100B3000FB710840AC490861204610BD00B5024673
:100B40000423FFF78AFF034603E0FFF786FF03460F
:100B5000521E012B01D1002AF7D102B905231846F4
:100B600000BD10B504244FF43020FFF7E7FF044622
:100B7000042C16D19C48006940F004009A49086191
:100B80000846006940F0400008614FF43020FFF74C
:100B9000D5FF04469448006941F6FB71084092492C
:100BA0000861204610BD00208F49C96911F0020F6D
:100BB00001D0012000E00020704730B5A5250424B5
:100BC000FFF7F1FF00B100254FF43020FFF75DFF84
:100BD0000446042C3AD1854883498860844888605B
:100BE0000846006940F0200008610846006940F0AE
:100BF000400008614FF43020FFF747FF0446042C03
:100C00001BD17948006941F6DF71084076490861D7
:100C10000846006940F01000086176480580E0024F
:100C2000FFF733FF0446052C10D06F48006941F6EA
:100C3000EF7108406C49086108E0052C06D06A484D
:100C4000006941F6EF71084067490861204630BDF0
:100C500078B506460C46042500200090E802FFF710
:100C600014FF0546042D24D15F48006940F00100BF
:100C70005D4908613480E802FFF707FF0546042D4F
:100C800010D1B01C0090200C00990880E802FFF7FA
:100C9000FCFE05465448006941F6FE710840524981
:100CA000086106E05048006941F6FE7108404E496F
:100CB0000861284678BD70B504460D460426F0024A
:100CC000FFF7E3FE0646042E11D14748006940F0C5
:100CD0000100454908612580F002FFF7D6FE06466F
:100CE0004148006941F6FE7108403F4908613046BD
:100CF00070BD70B505460E460424E002FFF7C5FE40
:100D00000446042C17D13948374988603848886030
:100D10000846006940F0100008612E80E002FFF7ED
:100D2000B4FE0446052C06D02F48006941F6EF7149
:100D300008402D490861204670BD2DE9F043044666
:100D40004FF6FF763746B046B1460425E443E6B297
:100D5000C4F30727C4F307484FEA1469E802FFF712
:100D600094FE0546042D49D120481F49886020483B
:100D700088600846006940F010000861FF2E06D028
:100D80001C4808300680E802FFF77FFE0546042D68
:100D900008D1FF2F06D017480A300780E802FFF776
:100DA00074FE0546042D0AD1B8F1FF0F07D0114893
:100DB0000C30A0F80080E802FFF767FE0546042D1E
:100DC0000AD1B9F1FF0F07D00A480E30A0F8009001
:100DD000E802FFF75AFE0546052D0FD002480069CC
:100DE00041F6EF71084007E000200240230167450B
:100DF000AB89EFCD00F8FF1F664908612846BDE8C2
:100E0000F08330B5054604244FF43020FFF73DFE53
:100E10000446042C41D160485E4988605F48886080
:100E20000846006940F0200008610846006940F06B
:100E3000400008614FF43020FFF727FE0446042CE1
:100E400022D15448006941F6DF71084051490861D8
:100E50000846006940F0100008611DB100205049AB
:100E6000088002E0A5204E4908804FF43020FFF7AB
:100E70000CFE0446052C10D04648006941F6EF717F
:100E800008404449086108E0052C06D04148006943
:100E900041F6DF7108403F490861204630BDF0B59A
:100EA00005460E46174604243B483A4988603B48AD
:100EB0008860E002FFF7E9FD0446042C19D13548AB
:100EC000006940F010003349086147F0F8003043F2
:100ED00028433349891C0880E002FFF7D6FD044609
:100EE000052C06D02B48006941F6EF7108402949CE
:100EF00008612046F0BD2748C06980087047254832
:100F0000006A704700202349096811F0200F01D0C2
:100F1000012000E00020704729B11E4A12690243F7
:100F20001C4B1A6104E01B4A12698243194B1A6177
:100F3000704701460020012908D1164AD26912F0F3
:100F4000010F01D0012008E0002006E0114AD2681C
:100F50000A4201D0012000E0002070470D49C8601E
:100F6000704704200B49C96811F0010F01D001201E
:100F70000EE00849C96811F0040F01D0022007E013
:100F80000449C96811F0100F01D0032000E00420CB
:100F9000704700000020024023016745AB89EFCD78
:100FA00000F8FF1F10B50446CA48844208D1012149
:100FB000042000F047FB0021042000F043FB46E042
:100FC000C548844208D10121082000F03BFB0021E4
:100FD000082000F037FB3AE0C048844208D10121E4
:100FE000102000F02FFB0021102000F02BFB2EE042
:100FF000BB48844208D10121202000F023FB0021BE
:10100000202000F01FFB22E0B648844208D10121D5
:10101000402000F017FB0021402000F013FB16E0F9
:10102000B148844208D10121802000F00BFB00214F
:10103000802000F007FB0AE0AC48844207D1012180
:10104000801500F0FFFA0021A01500F0FBFA10BD9A
:1010500010B50121084600F0F5FA0021012000F04A
:10106000F1FA10BD2DE9F0410246002500260020CE
:1010700000230024002791F803C00CF00F0591F81D
:1010800003C01CF0100F03D091F802C04CEA050514
:1010900091F800C0BCF1000F31D0146800202BE0A3
:1010A0004FF0010C0CFA00F3B1F800C00CEA030693
:1010B0009E4220D183004FF00F0C0CFA03F7BC4383
:1010C00005FA03FC4CEA040491F803C0BCF1280FB4
:1010D00006D14FF0010C0CFA00FCC2F814C00AE073
:1010E00091F803C0BCF1480F05D14FF0010C0CFA88
:1010F00000FCC2F810C0401C0828D1D31460B1F81D
:1011000000C0BCF1FF0F34DD546800202EE000F178
:10111000080C4FF0010808FA0CF3B1F800C00CEA13
:1011200003069E4221D183004FF00F0C0CFA03F707
:10113000BC4305FA03FC4CEA040491F803C0BCF17B
:10114000280F05D100F1080C08FA0CF8C2F8148039
:1011500091F803C0BCF1480F07D100F1080C4FF023
:10116000010808FA0CF8C2F81080401C0828CED3F9
:101170005460BDE8F0814FF6FF710180022181705B
:101180000421C17070470246002093680B4201D0D1
:10119000012000E0002070470146886880B2704757
:1011A00002460020D3680B4201D0012000E000205D
:1011B00070470146C86880B270470161704741615D
:1011C00070470AB1016100E041617047C16070473A
:1011D0004FF480320A43826181618261826982694F
:1011E000704702460020424B18684FF68073184043
:1011F00040EA021008433E4B186070473D49C86101
:101200007047F0B50A46002300240021002500F0B5
:101210000046B6F1004F02D1354EF16901E0344E7F
:101220007168C0F3034583B200F44016B6F5401F61
:1012300008D121F070612E4E766826F070662C4F32
:101240007E6012E000F48016B6F5801F06D10326FA
:1012500006FA05F4A14341F0706106E0460D36013F
:1012600003FA06F6B14341F0706122B1460D360132
:1012700003FA06F6314300F00046B6F1004F02D102
:101280001B4EF16101E01A4E7160F0BD30B50022D5
:101290008B071C0F0F2303FA04F2154B08338C1035
:1012A00053F824309343124C08348D1044F8253001
:1012B00023468C1053F824308C07240F00FA04F4D2
:1012C00023430B4C08348D1044F8253030BD0A49B7
:1012D0000860704700080140000C01400010014008
:1012E0000014014000180140001C01400020014092
:1012F0000000014000002042DC0020420E4908604E
:1013000070470D49486070470B49886070474AF63E
:10131000AA200949086070474CF6CC40064908608D
:10132000704701460020044AD2680A4201D00120D9
:1013300000E000207047000000300040DD480068F9
:1013400040F00100DB49086008464068DA4908407F
:10135000D849486008460068D8490840D54908601F
:101360000846006820F4802008600846406820F4A1
:10137000FE0048604FF41F0088607047CD4909683F
:1013800021F48031CB4A11601146096821F4802193
:101390001160B0F5803F03D0B0F5802F0ED106E08C
:1013A000C449096841F48031C24A116007E0C1496B
:1013B000096841F4A021BF4A116000E000BF00BFEE
:1013C000704710B501460022002300204A11012A6F
:1013D00002D1B84C236806E0022A02D1B54C236A38
:1013E00001E0B44C636A01F01F02012494401C42E6
:1013F00001D0012000E0002010BD38B50020009091
:101400000024002500BF3120FFF7DBFF05460098D0
:10141000401C00900098B0F5754F01D0002DF2D01F
:101420003120FFF7CEFF08B1012400E00024204660
:1014300038BD014600209F4A106820F0F80040EABD
:10144000C100106070479E49086070470246002046
:10145000984B586820F47C1042EA01031843954BDE
:101460005860704796490866704701460020914AC7
:10147000506820F003000843506070478D48406872
:1014800000F00C007047014600208A4A506820F0A6
:10149000F00008435060704701460020854A5068BC
:1014A00020F4E06008435060704701460020814A04
:1014B000506820F4605040EAC1005060704729B184
:1014C0007C4A527A02437B4B5A7204E0794A527A40
:1014D0008243784B5A7270477A49086070470146D8
:1014E0000020744A506820F4404008435060704720
:1014F0000021754A11706F4A82F82010012802D02D
:10150000042808D103E001216F4A117004E005218D
:101510006D4A117000E000BF00BF70476B49086062
:1015200070476449096A0143624A1162704767491A
:1015300044390860704730B50021002200240023A0
:101540005C4D6D6805F00C0121B1042905D0082916
:1015500023D105E05E4D056022E05D4D05601FE092
:10156000544D6D6805F47012524D6D6805F4803469
:10157000022505EB92421CB9564D554305600BE020
:101580004C4D6D6815F4003F03D0524D5543056036
:1015900002E04F4D5543056002E04D4D056000BF30
:1015A00000BF444D6D6805F0F00109094A4D6B5CC0
:1015B0000568DD4045603F4D6D6805F4E061090A4E
:1015C000454D6B5C4568DD4085603A4D6D6805F4BE
:1015D0006051C90A404D6B5C4568DD40C560354DC2
:1015E0006D6805F44041890B3C4D6B5CC568B5FBEB
:1015F000F3F5056130BD29B12E4A526902432D4BE6
:101600005A6104E02B4A526982432A4B5A6170475F
:1016100029B1284A92690243264B9A6104E0254A7F
:1016200092698243234B9A61704729B1214AD2695A
:101630000243204BDA6104E01E4AD26982431D4B0B
:10164000DA61704729B11B4AD2680243194BDA604C
:1016500004E0184AD2688243164BDA60704729B119
:10166000144A12690243134B1A6104E0114A1269C9
:101670008243104B1A617047144940390860704723
:101680000F49C86470470B49C87170470948406AE0
:1016900040F0807007494862704701460020054AC3
:1016A00092680A4201D0012000E000207047014901
:1016B00088727047001002400000FFF8FFFFF6FE3E
:1016C00000004242D80042422010024080044242C0
:1016D00000127A0000093D000000002010000020E8
:1016E00010B50446FE48844208D10121C014FFF71A
:1016F000A9FF0021E014FFF7A5FFC4E0B4F1804F7B
:1017000008D101210846FFF7AAFF00210120FFF7B9
:10171000A6FFB8E0F348844208D101210220FFF778
:101720009EFF00210220FFF79AFFACE0EE488442C2
:1017300008D101210420FFF792FF00210420FFF7C8
:101740008EFFA0E0E948844208D101210820FFF77C
:1017500086FF00210820FFF782FF94E0E4488442DE
:1017600008D101211020FFF77AFF00211020FFF798
:1017700076FF88E0DF48844208D101212020FFF76E
:101780006EFF00212020FFF76AFF7CE0DA488442E8
:1017900008D101214014FFF755FF00216014FFF725
:1017A00051FF70E0D548844209D10121C804FFF7F8
:1017B00049FF00214FF40020FFF744FF63E0D048C9
:1017C000844209D101210805FFF73CFF00214FF4B5
:1017D0008010FFF737FF56E0CA48844209D1012143
:1017E0004805FFF72FFF00214FF40010FFF72AFFF5
:1017F00049E0C548844208D101214020FFF72FFF6E
:1018000000214020FFF72BFF3DE0C048844208D173
:1018100001218020FFF723FF00218020FFF71FFF19
:1018200031E0BB48844208D101218015FFF717FF42
:101830000021A015FFF713FF25E0B648844209D127
:1018400001210804FFF7FEFE00214FF48030FFF76E
:10185000F9FE18E0B048844209D101214804FFF79D
:10186000F1FE00214FF40030FFF7ECFE0BE0AB4837
:10187000844208D101218804FFF7E4FE00214FF4DF
:101880008020FFF7DFFE10BD00220288944B9842B3
:101890000ED0994B98420BD0B0F1804F08D0914BAD
:1018A000984205D0904B984202D0904B984204D178
:1018B0004FF68F731A404B881A438D4B984207D0CE
:1018C0008C4B984204D04FF6FF431A40CB881A4302
:1018D00002808B8883850B880385814B98420BD0CF
:1018E000854B984208D08B4B984205D08A4B984242
:1018F00002D08A4B984201D10B7A0386012383825E
:10190000704770B5002400220023058C4FF6FE7648
:1019100035400584028C8388048B4FF68F752C40EC
:10192000B51E2C400D882C43751E2A400D892A4374
:101930004D882A436A4DA8420BD06F4DA84208D06B
:10194000744DA84205D0744DA84202D0734DA842F0
:1019500013D14FF6F7752A404D892A434FF6FB7590
:101960002A408D882A434FF6FF652B404FF6FF55DE
:101970002B408D892B43CD892B4383800483CD88D5
:101980008586028470BD70B5002400220023058C7A
:101990004FF6EF7635400584028C8388048B48F639
:1019A000FF752C404FF6FF452C400D884FF6FF7613
:1019B00006EA05252C434FF6DF752A400D8906EA15
:1019C00005152A434D8806EA05152A43444DA842C9
:1019D00002D0494DA8421DD14FF67F752A404D894E
:1019E0004FF6FF7606EA05152A434FF6BF752A40E3
:1019F0008D8806EA05152A434FF6FF352B404FF236
:101A0000FF752B408D8906EA85052B43CD8906EAB3
:101A100085052B4383800483CD880587028470BDB0
:101A200070B5002400220023058C4FF6FF66354078
:101A30000584028C8388848B4FF68F752C404FF67B
:101A4000FC752C400D882C434FF6FF552A400D891C
:101A50004FF6FF7606EA05252A434D8806EA052556
:101A60002A431F4DA84202D0234DA8421DD14FF258
:101A7000FF752A404D894FF6FF7606EA05252A4371
:101A80004FF6FF352A408D8806EA05252A434EF693
:101A9000FF752B404DF6FF752B408D8906EA051525
:101AA0002B43CD8906EA05152B4383808483CD889B
:101AB0008587028470BD70B5002200230024058C48
:101AC0004EF6FF7635400584038C8488828B48F679
:101AD000FF752A404FF6FF452A400D8820E00000A0
:101AE000002C01400004004000080040000C0040B1
:101AF000001000400014004000340140004C014040
:101B0000005001400054014000180040001C0040FB
:101B100000200040004001400044014000480140D6
:101B20004FF6FF7606EA05252A434DF6FF752B4052
:101B30000D8906EA05352B434D8806EA05352B430A
:101B4000FA4DA84202D0FA4DA84208D14BF6FF75D3
:101B50002C408D894FF6FF7606EA85152C4384804C
:101B60008283CD88A0F84050038470BD828B4FF2F1
:101B7000FF331A408283828B4FF6FF7303EA0123FF
:101B80001A4382837047F0B50C46154600220021A7
:101B90000026078C4EF6FF7C07EA0C070784828B31
:101BA000018C4FF6FF7707EA043640F6FF473A40CC
:101BB0004FF6FF7707EA05273A434FF6FF7707EA24
:101BC00003373A43D94FB8420ED0D94FB8420BD061
:101BD000B0F1804F08D0D74FB84205D0D64FB842A9
:101BE00002D0D64FB84206D14DF6FF77394046F4C1
:101BF0008057394305E047F6FF57394044F4805792
:101C0000394382830184F0BD828B4FF6F3731A400F
:101C10008283828B0A4382837047F0B50C46154657
:101C2000002200210026078C4FF6FF6C07EA0C0704
:101C30000784828B018C4FF6FF7707EA04264FF664
:101C40000C773A404FF6FF7707EA03172F433A43E2
:101C5000B64FB8420ED0B64FB8420BD0B0F1804F5D
:101C600008D0B44FB84205D0B34FB84202D0B34FFA
:101C7000B84206D14FF6FF57394046F480773943D2
:101C800005E04FF2FF57394044F4807739438283AF
:101C90000184F0BD028B4FF2FF331A400283028BA6
:101CA0004FF6FF7303EA01231A4302837047F0B52E
:101CB0000C461546002200210026078C4FF6EF7CCB
:101CC00007EA0C070784028B018C4FF6FF7707EABF
:101CD000041640F6FF473A404FF6FF7707EA03370E
:101CE0003A434FF6FF7707EA05273A438F4FB8424A
:101CF0000ED08F4FB8420BD0B0F1804F08D08D4F2F
:101D0000B84205D08C4FB84202D08C4FB84206D1B1
:101D10004FF6DF77394046F01007394305E04FF6BC
:101D20005F77394044F01007394302830184F0BDE6
:101D3000028B4FF6F3731A400283028B0A4302832D
:101D40007047F0B50C46154600220021068C4FF670
:101D5000FE773E400684028B018C4FF60C763240B3
:101D60007E1C06EA03162E433243704EB0420ED05C
:101D70006F4EB0420BD0B0F1804F08D06D4EB042E4
:101D800005D06D4EB04202D06C4EB04206D14FF637
:101D9000FD76314044F00106314305E04FF6F5761B
:101DA000314044F00106314302830184F0BD70B537
:101DB00005460C465D4885420ED05D4885420BD0F5
:101DC000B5F1804F08D05B48854205D05A4885421E
:101DD00002D05A48854200D100E000BF208850B9A7
:101DE0002389A28861882846FFF7ABFFE18828464F
:101DF000FFF79EFF25E0208804280AD12389A288C6
:101E000061882846FFF753FFE1882846FFF742FF25
:101E100017E0208808280AD12389A28861882846EB
:101E2000FFF7FBFEE1882846FFF7EEFE09E0238975
:101E3000A28861882846FFF7A6FEE1882846FFF7BA
:101E400095FE70BD2DE9F04105460C4600260127A0
:101E5000608808B9022600E00026A088012801D188
:101E6000022700E001272088A0B92389A288618881
:101E70002846FFF766FFE1882846FFF759FF2389C8
:101E80003A4631462846FFF712FFE1882846FFF719
:101E900001FF13E02389A28861882846FFF707FF26
:101EA000E1882846FFF7F6FE23893A463146284660
:101EB000FFF747FFE1882846FFF73AFFBDE8F081CA
:101EC0000A884B881A438B881A43CB881A430B899C
:101ED0001A434B891A438B891A43A0F84420704750
:101EE0004FF6FF71818000210180C1804180017225
:101EF00070470021018041808180C1800181418142
:101F00008181C18170470021018041800121818050
:101F10000021C180018170470021018041808180C2
:101F2000C18001814181818170470000002C014006
:101F3000003401400004004000080040000C004054
:101F400021B1028842F00102028004E002884FF6CB
:101F5000FE731A400280704731B1B0F8442042F459
:101F60000042A0F8442005E0B0F84420C2F30E027D
:101F7000A0F8442070471AB183890B43838102E0A3
:101F800083898B43838170478182704741EA0203D2
:101F9000A0F8483070471AB183890B43838102E06F
:101FA00083898B438381704701894FF6F872114012
:101FB000018170470A46002101894FF68F7319404D
:101FC00011430181704730B504460D46294620462D
:101FD000FFF7F0FF208940F00700208130BD2DE998
:101FE000F04104460D4616461F46602D06D13B467D
:101FF000012231462046FFF75AFE05E03B4601220A
:1020000031462046FFF79DFE29462046FFF7D2FFC6
:10201000208940F007002081BDE8F08130B50C46F2
:1020200000210189C9B24FF6FF7505EA0325154362
:1020300025432943018130BD2DE9F04105460E4677
:1020400017469846002443463A4631462846FFF74D
:10205000E5FF2C894FF6F870044044F007044FF672
:102060008F70044044F070042C81BDE8F081F0B51D
:1020700004460D4616461F463B4632462946204634
:10208000FFF7CCFF208940F480402081F0BD01851E
:10209000828270470A46002101884FF68F731940EB
:1020A000114301807047F0B50C4615461E460021CD
:1020B000002200230189028B038C4FF6F877394008
:1020C00021434FF6FC473A4040F201173A434FF69E
:1020D000DD773B404FF6FF7707EA06172F433B4378
:1020E000018102830384F0BD0A460021018B4FF673
:1020F0008F7319401143018370470A460021018BF9
:1021000048F6FF7319404FF6FF7303EA02231943A1
:10211000018370470A460021818B4FF68F73194067
:102120001143818370470A460021818B48F6FF7373
:1021300019404FF6FF7303EA022319438183704766
:1021400021B1028842F08002028004E002884FF64A
:102150007F731A400280704721B1828842F00402E6
:10216000828004E082884FF6FB731A4082807047B9
:1021700021B1828842F00802828004E082884FF612
:10218000F7731A408280704721B1828842F00102C1
:10219000828004E082884FF6FE731A408280704786
:1021A0000A460021018B4FF6F77319401143018352
:1021B00070470A460021018B4FF2FF7319404FF61A
:1021C000FF7303EA02231943018370470A46002183
:1021D000818B4FF6F77319401143818370470A468C
:1021E0000021818B4FF2FF7319404FF6FF7303EA12
:1021F00002231943818370470A460021018B4FF661
:10220000FB7319401143018370470A460021018B7B
:102210004FF6FF3319404FF6FF7303EA02231943C9
:10222000018370470A460021818B4FF6FB731940EA
:102230001143818370470A460021818B4FF6FF339B
:1022400019404FF6FF7303EA022319438183704755
:102250000A460021018B4FF67F7319401143018319
:1022600070470A460021018BC1F30E014FF6FF7340
:1022700003EA02231943018370470A460021818B38
:102280004FF67F7319401143818370470A4600213E
:10229000818BC1F30E014FF6FF7303EA022319434A
:1022A000818370470A460021018C4FF6FD73194067
:1022B0001143018470470A460021018C4FF6F773E1
:1022C00019401143018470470A460021018C4FF6E2
:1022D000DF7319404FF6FF7303EA021319430184B9
:1022E00070470A460021018C4FF67F7319404FF664
:1022F000FF7303EA02131943018470470A46002161
:10230000018C4FF6FF5319404FF6FF7303EA022387
:102310001943018470470A460021018C4FF2FF7374
:1023200019404FF6FF7303EA0223194301847047F3
:102330000A460021018C4DF6FF7319404FF6FF73DA
:1023400003EA023319430184704730B500230124A6
:102350008C40A3B2048C9C430484048C02FA01F5E3
:10236000ADB22C43048430BD30B5002304248C402E
:10237000A3B2048C9C430484048C02FA01F5ADB230
:102380002C43048430BD70B5034600200024184659
:10239000183001258D40ACB21D8CA5431D8409B1B8
:1023A000082909D100EB6100056825F0700505607A
:1023B0000568154305600EE00D1FC5F34E05284462
:1023C000056825F4E045056005684FF6FF7606EAE6
:1023D00002263543056070BD21B1028842F0020239
:1023E000028004E002884FF6FD731A4002807047B5
:1023F00021B1028842F00402028004E002884FF614
:10240000FB731A400280704721B1828842F080023B
:10241000828004E082884FF67F731A408280704782
:1024200002884FF6F7731A40028002880A4302803E
:10243000704782884FF68F731A40828082880A43E1
:102440008280704702894FF6F8731A400281028930
:102450000A430281704702894FF67F731A40028156
:1024600002890A43028170478184704781857047E1
:10247000818670470187704781877047A0F84010B8
:10248000704702884FF6FF431A40028002880A43D1
:10249000028070470146888E70470146088F70475A
:1024A0000146888F70470146B1F8400070470146E9
:1024B000888C70470146088D704702460020138AB9
:1024C0000B4201D0012000E000207047CA43028285
:1024D000704730B50246002000230024158A05EA23
:1024E0000103958905EA010413B10CB1012000E054
:1024F000002030BDCA4302827047000010B5044678
:10250000FB48844209D101218803FFF79BF8002191
:102510004FF48040FFF796F832E0F648844209D144
:1025200001214804FFF79BF800214FF40030FFF72A
:1025300096F825E0F048844209D101218804FFF78C
:102540008EF800214FF48020FFF789F818E0EB485F
:10255000844209D10121C804FFF781F800214FF41A
:102560000020FFF77CF80BE0E548844208D1012108
:102570000805FFF774F800214FF48010FFF76FF89B
:1025800010BD2DE9F04786B005460E460024A24650
:1025900000BFA1460027B08900B100BF2F462C8A9A
:1025A0004CF6FF700440F08804432C82AC894EF650
:1025B000F3100440B088318908437189084304430B
:1025C000AC81AC8A4FF6FF400440B0890443AC8232
:1025D00001A8FEF7B0FFC648874202D1DDF810A07F
:1025E00001E0DDF80CA0A88910F4004F08D00AEB38
:1025F000CA0000EB0A1031684900B0FBF1F807E0AF
:102600000AEBCA0000EB0A1031688900B0FBF1F850
:102610006420B8FBF0F004012009642101FB10895B
:10262000A88910F4004F08D0322000EBC900B0FB9D
:10263000F1F000F00700044308E0322000EB09103D
:102640006421B0FBF1F000F00F0004432C8106B0D0
:10265000BDE8F0874FF41651016000218180C180F0
:1026600001810C21418100218181704710B5024612
:102670000020108A4FF2FF0318400B884C88234338
:102680008C882343CC8823431843108210BD00213B
:10269000018041808180C180704721B1828942F4EC
:1026A0000052828104E082894DF6FF731A408281D4
:1026B0007047F0B503460024002600250020A1F550
:1026C00010676A3F00D100BF1846C1F3421401F001
:1026D0001F06012707FA06F5012C01D10C3004E092
:1026E000022C01D1103000E014301AB107682F43DA
:1026F000076002E00768AF430760F0BD1AB1838A44
:102700000B43838202E0838A8B4383827047028A71
:102710004FF6F0731A400282028A0A43028270471F
:1027200082894FF2FF731A40828182890A43828133
:10273000704721B1828942F00202828104E08289DD
:102740004FF6FD731A4082817047028A4FF6DF739D
:102750001A400282028A0A430282704721B1028A29
:1027600042F48042028204E0028A4BF6FF731A4070
:1027700002827047C1F30802828070470146888850
:10278000C0F308007047818941F0010181817047E1
:10279000028BD2B20283028B42EA0122028370478B
:1027A000028B02F47F420283028B0A43028370474A
:1027B00021B1828A42F02002828204E0828A4FF6AE
:1027C000DF731A408282704721B1828A42F0100280
:1027D000828204E0828A4FF6EF731A408282704749
:1027E00021B1828A42F00802828204E0828A4FF696
:1027F000F7731A408282704721B1828942F4004205
:10280000828103E08289C2F30E028281704721B186
:10281000828A42F40062828204E0828A4FF2FF736D
:102820001A4082827047828A4FF6FB731A40828276
:10283000828A0A438282704721B1828A42F0020270
:10284000828204E0828A4FF6FD731A4082827047CA
:1028500002460020B1F5007F00D100BF13880B4273
:1028600001D0012000E00020704701F40072B2F5B1
:10287000007F00D100BFCA430280704770B5024696
:102880000024002300250020A1F510666A3E00D137
:1028900000BFC1F3421501F01F03012606FA03F33E
:1028A000012D02D19689334006E0022D02D1168A0D
:1028B000334001E0968A33400C12012606FA04F4F4
:1028C0001688344013B10CB1012000E0002070BD27
:1028D00010B500220023A1F510646A3C00D100BFAE
:1028E0000A1201249440A3B2DC43048010BD00000E
:1028F000003801400044004000480040004C0040C7
:102900000050004010B54048406A40F001003E4988
:10291000486200BF3C48406A10F0020FFAD045F20E
:102920005550FEF7EBFC0620FEF7EBFC374800683D
:10293000C0F3CF10FEF7E8FCFEF7E9FCFEF7ECFC75
:1029400010BD10B500F0E9F8044614F0010F05D0F1
:102950004FF480712E48FEF730FC04E04FF4807194
:102960002B48FEF72CFC10BD08B501210820FEF70E
:102970004FFE4FF48070ADF8000003208DF8020088
:1029800010208DF8030069462148FEF76BFB4FF4D9
:1029900080711F48FEF713FC08BDFFF7E5FF01F04B
:1029A00059F901F013FF00F068FA0121194801F00C
:1029B000F8FD18480068401C02D100F06BFE01E0F1
:1029C00000F072FE01F0B4FF02F0A2F802F006F986
:1029D0001148006802F07BFE044621460E4800685C
:1029E00000F097FA0FE0FFF7ACFF00F081FE01F076
:1029F000EFF801F0A5FA01F0DCFC02F0E1F902F0D9
:102A000076FCFEF784FCEEE7001002401400002084
:102A1000000C0140180000201C000020704700BF7F
:102A2000FEE700BFFEE700BFFEE700BFFEE770471E
:102A300070477047704708B540F225513848FFF796
:102A40001DFF90B13648FFF799FEC0B200900122F9
:102A50006946344800F0E9FAB0F1FF3F05D10022A1
:102A600040F225512E48FFF724FE08BD08B540F27C
:102A700025512D48FFF702FF90B12B48FFF77EFE4E
:102A8000C0B2009001226946284800F0CEFAB0F1A9
:102A9000FF3F05D1002240F225512348FFF709FEF0
:102AA00008BD08B540F225512148FFF7E7FE90B177
:102AB0001F48FFF763FEC0B20090012269461D481F
:102AC00000F0B3FAB0F1FF3F05D1002240F22551EA
:102AD0001748FFF7EEFD08BD10B501211648FFF7B6
:102AE000F8FC012818D101211348FFF703FD134812
:102AF0000068401C114908600846006810F0030F88
:102B000002D101200E4908700C48006810F0020F35
:102B100002D101200B49087010BD084800687047B9
:102B200000380140980A002000440040A80A002014
:102B300000480040B80A002000100040200000209B
:102B400024000020250000200CB5002001900090FA
:102B50006B48006840F480306949086000BF6848ED
:102B6000006800F4003000900198401C019000982B
:102B700018B90198B0F5754FF1D16148006810F4AB
:102B8000003F02D00120009001E00020009000985A
:102B9000012842D15B48006840F0100059490860A4
:102BA0000846006820F0030008600846006840F00E
:102BB0000200086052484068514948600846406831
:102BC00048600846406840F48060486008464068B5
:102BD00020F47C1048600846406840F4E8104860E3
:102BE0000846006840F08070086000BF44480068F4
:102BF00010F0007FFAD04248406820F003004049BE
:102C000048600846406840F00200486000BF3C4809
:102C1000406800F00C000828F9D10CBD10B5FFF792
:102C200093FF10BD10B53648006840F001003449EC
:102C30000860084640683449084031494860084601
:102C40000068324908402E4908600846006820F4B0
:102C5000802008600846406820F4FE0048604FF479
:102C60001F008860FFF7DAFF4FF000602849086016
:102C700010BD10B5002100200022214B5B6803F03D
:102C80000C0121B1042906D0082928D107E0214BE5
:102C9000214C236027E01F4B1F4C236023E0184B7F
:102CA0005B6803F47010164B5B6803F480320223F8
:102CB00003EB904022B9194B4343174C23600DE0BE
:102CC0000F4B5B6813F4003F04D0144B4343124C8A
:102CD000236003E00F4B43430F4C236003E00D4B95
:102CE0000D4C236000BF00BF054B5B68C3F30313AB
:102CF0000B4CE15C084B1B68CB40074C236010BDBC
:102D000000100240002002400000FFF0FFFFF6FE2E
:102D100008ED00E000127A002800002000093D00C4
:102D20002C00002010B58021954802F066FD4FF47C
:102D30008071944802F061FD8021934802F05DFDAE
:102D400080228F49914800F033F94FF480728D4909
:102D50008F4800F02DF980228B498E4800F028F929
:102D600010BD08B54FF48060ADF8000048208DF824
:102D7000030069468848FEF775F94FF40070ADF816
:102D8000000003208DF8020018208DF8030069462A
:102D90008148FEF767F90820ADF8000003208DF8A0
:102DA000020048208DF8030069467B48FEF75AF977
:102DB0000420ADF8000003208DF8020018208DF8E3
:102DC000030069467448FEF74DF94FF40060ADF812
:102DD000000003208DF8020048208DF803006946AA
:102DE0006E48FEF73FF94FF48060ADF80000032015
:102DF0008DF8020018208DF8030069466748FEF739
:102E000031F908BD08B54FF4E060FDF72FFA252031
:102E10008DF8000000208DF8020001208DF80300DD
:102E20006846FDF728FA26208DF8000001208DF86D
:102E300002008DF803006846FDF71DFA27208DF883
:102E4000000002208DF8020001208DF80300684682
:102E5000FDF711FA08BD10B501210D20FEF7D8FBD2
:102E600001218803FEF7D4FB01214804FEF7DDFBB6
:102E700001218804FEF7D9FB10BD10B5FFF752FF02
:102E8000FFF7E9FFFFF7BEFFFFF76BFF4FF4E130FD
:102E90004349086000208880C880088188810C2010
:102EA00048814048FFF76DFB3D493F48FFF769FB0C
:102EB0003B493E48FFF765FB012240F22551394866
:102EC000FFF7F7FB012240F225513748FFF7F1FBEE
:102ED000012240F225513548FFF7EBFB0121314833
:102EE000FFF7DBFB01213048FFF7D7FB01212F481B
:102EF000FFF7D3FB10BD10B5044621462B48FFF762
:102F000039FC00BF80212948FFF7A2FC0028F9D036
:102F100010BD70B505460E46002400BF03E0285DD5
:102F2000FFF7E9FF641CB442F9DB70BD2DE9F04105
:102F300080460C461546002600BF0CE0A75D3946CA
:102F40004046FFF717FC00BF80214046FFF780FC9A
:102F50000028F9D0761CAE42F0DB29462046FFF768
:102F6000D8FFBDE8F08170B505462C4603E014F8A3
:102F7000010BFFF7C0FF20780028F8D170BD0000DA
:102F80009808002018090020180A0020980A00203C
:102F9000A80A0020B80A002000080140000C0140E7
:102FA000080700200038014000440040004800406D
:102FB00070B503460C4600210025202111E03DB9E3
:102FC000481E012606FA00F0104209D0012507E04C
:102FD000481E012606FA00F0104201D0B01E70BD56
:102FE000491E0029EBDC12B94FF0FF30F7E71A60F9
:102FF000002058609860DC6000BFF0E70246114690
:1030000039B1C86828B10020086048608860C8608D
:1030100070474FF0FF30FBE7014648688A68801A26
:103020000A681044521E10407047F0B503460E4621
:103030001446002500271846FFF7EEFF0746E11962
:103040001868401E814201D9681EF0BD00250BE0C2
:10305000725D5868411C5960D9680A5458681968EB
:10306000491E084058606D1CA542F1D30020ECE7D2
:10307000F0B503460E461446002500271846FFF714
:10308000CBFF0746BC4201D9681EF0BD00250BE00E
:103090009868411C9960D968095C715598681968ED
:1030A000491E084098606D1CA542F1D30020ECE752
:1030B000014608784A7840EA02207047F0B5034696
:1030C0000C460021002000BF0FE05D5CCB4E06EBFC
:1030D00015152F780546401C57555D5C05F00F050A
:1030E000775D0546401C5755491CA142EDDBF0BDFC
:1030F00070B5024600230120C0EB41044B1E0FE0D7
:10310000D05C00F00F00BD4D2E5C2046641E1654AE
:10311000D05C05EB101006782046641E16545B1E2A
:10312000002BEDDA480070BD01460020302905DB98
:10313000392903DCA1F13002D0B20EE0612905DBB0
:10314000662903DCA1F15702D0B206E0412904DB75
:10315000462902DCA1F13702D0B270472DE9F041D7
:1031600004460D4616460023002700BF0EE0591CFA
:10317000605CFFF7D9FF8046E05CFFF7D5FF48EAC7
:103180000010C2B238467F1C32549B1CAB42EEDBAF
:103190003846BDE8F081F0B503460D460024002610
:1031A00000BF0EE0611C585CFFF7BEFF0746185DCC
:1031B000FFF7BAFF47EA0010C2B23046761C1A5435
:1031C000A41CAC42EEDB3046F0BD0146084611F0CF
:1031D000800F04D0CA43D1B24A1CD1B248427047D2
:1031E0000146084611F4004F03D0C9434A1C11B2EE
:1031F0004842704702780B7803700A7070472DE9D7
:10320000F041054688461646002E0ADD0024374662
:1032100005E0E9192819FFF7EDFF641C7F1C444500
:10322000F7DBBDE8F08130B502460C46002109E02D
:10323000C1F30723090210785840714D55F820005A
:103240004140521C2000A4F10105ACB2F0D188B27B
:1032500030BDF0B503460E461546002731460A2D0F
:1032600005D0102D03D0002008703046F0BD33B9D2
:10327000302001F8010B002008703046F6E70A2DD7
:1032800018D1002B03DA2D2001F8010B5B425D4AB7
:103290000DE093FBF2F404B937B104F1300001F80A
:1032A000010B04FB123301270A2092FBF0F2002AE3
:1032B000EFDC10E007220CE0900043FA00F000F091
:1032C0000F0404B927B15048005D01F8010B012734
:1032D000521E002AF0DA002008703046C6E70FB40C
:1032E000F0B587B0002500260020049005900690D8
:1032F00001900290039000240DAC51E00C980078EE
:10330000252806D00C9911F8010B0C91FFF7F3FD5D
:1033100046E00C98401C0C900078632814D006DC22
:10332000432812D0442824D053282FD104E0642805
:1033300012D073282AD100BF201D044650F8045C27
:103340002846FFF710FE26E000BF211D0C4611F8AD
:10335000040CFFF7D0FD1EE0201D044650F8046C5D
:103360000A2201A93046FFF774FF0746FFF7FBFD6D
:1033700011E0201D044650F8046C102204A93046C8
:10338000FFF767FF0746FFF7EEFD04E00C990878AA
:10339000FFF7B1FD00BF00BF0C98401C0C9000BFB0
:1033A0000C9800780028A9D1002407B0F0BC5DF883
:1033B00014FB2DE9F84F83464FF0000A584602F0FF
:1033C000BDFF8246584602F069FE04460D4650464F
:1033D00002F0D0FF009002F061FE804600220B4B0D
:1033E00002F0F8FB064622462B4602F037FD02D2D9
:1033F0005046BDE8F88F0AF10100FAE72866000898
:103400003C66000800CA9A3B3C6A00080000E03FA6
:103410002DE9F04707460C4615463E46B8464FF0A4
:103420000009012D28D1C4EB0410FE490844D0F84E
:1034300003000078012808D18120C4EB0411F94A67
:103440001144D1F80310087010E0C4EB0410F549E2
:103450000844D0F803000078802807D10020C4EB8E
:103460000411F04A1144D1F8031008700020EE490D
:103470000870EE4908707DE0022D4AD1C4EB0410BB
:10348000E849085CC01C98F80010884202D04FF050
:1034900040090BE0C4EB0410E24B1A5CC4EB0410CF
:1034A0001844D0F80310F01C02F030F9C4EB0410FB
:1034B000DC490844B0F8010000F47060B0F5407FCA
:1034C00058D1C4EB04100844D0F803000078012858
:1034D00008D18120C4EB0411D24A1144D1F8031061
:1034E000087010E0C4EB0410CE490844D0F8030083
:1034F0000078802807D10020C4EB0411C94A114488
:10350000D1F8031008700020C7490870C749087037
:1035100030E0032D2ED1C4EB0410C249085CC01C5E
:1035200098F80010884202D04FF0400922E0C4EB26
:103530000411BC4B5A5CC4EB04111944D1F80300CC
:10354000F11C02F098F8A8B1C4EB0411B54B5A5C19
:10355000C4EB04111944D1F80300F11C02F0D6F8B1
:10356000C4EB0410AF490844D0F80B0010B101209F
:10357000AF4908704846BDE8F0872DE9F047054699
:103580000C4616462F46A8464FF00009022E29D1B8
:10359000C4EB0410A349085CC01C98F800108842D2
:1035A00002D04FF040092EE0C4EB04119D4A1144B3
:1035B000D1F80310481C01F0CDF82020C4EB041111
:1035C000984A1144D1F803100870C4EB0410134654
:1035D0001A5CC4EB04101844D0F80310F81C02F075
:1035E00095F810E0032E0ED1C4EB04108D49085C51
:1035F000C01C98F80010884202D04FF0400902E049
:10360000381D01F0C2F84846BDE8F0872DE9F041C9
:1036100000253926002412E0C4EB0413814FFA5C24
:10362000C4EB04133B44D3F80310824B581902F047
:103630006DF8C4EB04103946085C0544641CB442C0
:10364000EADB0020BDE8F0812DE9F04100253926B4
:1036500000241AE0C4EB041072490844B0F80100D9
:103660000A280CD0C4EB04130F46FA5C714B5919AD
:10367000C4EB04133B44D3F8030002F047F8C4EB57
:1036800004106849085C0544641CB442E2DB002075
:10369000BDE8F08110B5FFF7B9FF4FF40071654840
:1036A00000F038FF002010BD10B54FF400716148E4
:1036B00000F077FFFFF7C8FF002010BD2DE9F041B3
:1036C00004460D4600260027281F81B2601CFFF724
:1036D000AAFD0646E81E215CA81E205C01EB002026
:1036E00087B2BE4202D10120BDE8F0810020FBE795
:1036F00010B500245048FFF78FFC0446002C55D02D
:103700004E484F4A1268811801224B48FFF7B0FC1F
:103710004C48007890B9494800787E2808D10120AB
:103720004849087046480068401C454908603DE02B
:103730000020434908604349087037E04148007859
:10374000012833D13D483E490968405C7E281FD19D
:103750003B480068401C112808D27E203749087079
:10376000012037490860374908701FE03448026873
:10377000521C3249344802F00EF831480068401CAF
:103780003249086000202F4908702D4908600DE07B
:103790002B480068401C2A49086008460068B0F5BC
:1037A000967F03D9002008602649087010BD30B507
:1037B00002460C46002100231BE0505C5E2814D119
:1037C000481C105C5D2804D15E2050545B1C491CD1
:1037D0000BE0481C105C7D2804D17E2050545B1CFB
:1037E000491C02E04FF0FF3030BD491C505CCD1A3F
:1037F0005055A142E1DB1846F6E7F0B502460F4608
:1038000000BF00BF002439261346D078012820D1FC
:10381000107901281DD106F113004FF0140C90FB14
:10382000FCF015E06401002040000020480000206A
:1038300049000020C8100020B80A0020C80A002053
:10384000E0050020E4050020C80C0020E805002069
:10385000D0701579681E00EB8000810021E0C1EB7B
:103860000110DFF84CC4604440784FF0050C0CEBBD
:10387000440C02F80C00C1EB0110DFF834C46044C2
:10388000B0F80100000A4FF0060C0CEB440C02F8F3
:103890000C001878801C1870641C142C00DB02E0EB
:1038A000491CB142DBDB00BF1878F0BD2DE9F041C7
:1038B00005460E464FF000083927002416E0B5F8FB
:1038C0000100C4EB0411FA4A1144B1F80110884216
:1038D0000BD1C4EB041011460844D0F8073032462F
:1038E000214628469847804602E0641CBC42E6DB3D
:1038F00000BFBC4207D14FF01008B5F8010040F0FE
:103900001000A5F801004046BDE8F0812DE9F04720
:1039100004460D4616464FF00008C146C2462746EB
:10392000B7F80100092809D1022E07D120462968DD
:10393000FFF763FF8246C5F800A058E04FF000088B
:1039400008E004EB080731463846FFF7AFFF814631
:103950003878804428684045F3DC012E47D1D548AB
:10396000007800F07F00D3490870D348007800F059
:103970007F00D1490870D148007800F07F00CF491E
:103980000870CF48007800F07F00CD490870CD481E
:10399000007800F07F00CB490870CB48007800F039
:1039A0007F00C9490870C948007800F07F00C74906
:1039B0000870C748007800F07F00C5490870C54806
:1039C000007800F07F00C3490870C348007800F019
:1039D0007F00C1490870C148007800F07F00BF49EE
:1039E0000870BF48007800F07F00BD490870484665
:1039F000BDE8F0872DE9F84307460D4690460026BE
:103A0000B146002000903C466078404502D0701ED0
:103A1000BDE8F883A078012802D06FF00200F7E734
:103A20000422B049E01C01F026FE50B1E07828B92C
:103A3000E07818B9E07808B9E07810B16FF00300C9
:103A4000E6E7E079A8490978884202D06FF00300E0
:103A5000DEE72089B0F5004F07DD2089A34909681A
:103A6000884202D06FF00B00D2E7A07A802804D001
:103A7000A07A10B16FF00400CAE7E07A012802D002
:103A80006FF00500C4E7207B012805D0607BFF288C
:103A900002D06FF00700BBE7002603E004F10E0040
:103AA000805D064428681138B042F7DC2868113878
:103AB000B04202D003206073AAE7207B012808D01F
:103AC000207B022805D0207B032802D002206073CF
:103AD0009EE70020A0726073286811380090227B56
:103AE000694604F10E00FFF711FF8146B9F1000F9E
:103AF00001DA01206073009811302860207B0128D2
:103B000001D1801E84E7002082E710B502460B46F3
:103B100000210020012107E0545C7E2C02D0545C7F
:103B20005E2C00D1401C491C5C1E8C42F4DC10BD94
:103B30002DE9F04704460D464FF00009C846281FFE
:103B400081B2601CFFF76FFB8146E81E04F800900D
:103B50004FEA1921A81E21547E21681E21542946AE
:103B60002046FFF7D2FF8046B8F1000F2CDD6E1E15
:103B700005EB0800471E3046761E225C38467F1E45
:103B800022541FE0A05D7E2809D17D2238467F1E89
:103B900022545E2238467F1E2254761E12E0A05D1B
:103BA0005E2809D15D2238467F1E22545E223846A7
:103BB0007F1E2254761E05E03046761E225C384673
:103BC0007F1E2254002EDDDC05EB0800BDE8F087E7
:103BD000F8B5002000900024002500264448006825
:103BE00050B3434801684348FFF7E1FD0446002C09
:103BF00003DA00203E49086022E03D480068001BCF
:103C0000009000203A4908603A480099FFF756FDB5
:103C1000012812D1012269463648FFF7EBFE05461E
:103C2000002D0DDB33480099FFF782FF0646324630
:103C300030493148FFF77AF902E000202C4908604A
:103C40002E480078012804D1FFF724FD00202B49DD
:103C50000870F8BD08B501214020FDF7D9FC7C2093
:103C6000ADF8000002208DF8020004208DF803005A
:103C700069462348FDF7F6F901212020FDF7C8FC2D
:103C800048F23F00ADF8000003208DF80200042048
:103C90008DF8030069461B48FDF7E4F908BD10B52F
:103CA00001211848FDF76FFA08B9012010BD2BE07B
:103CB000640100204A0100204B0100204C0100203B
:103CC0004D0100204E0100204F0100205001002036
:103CD0005101002052010020530100205401002016
:103CE00055010020B1000020B5000020DC050020B7
:103CF000E8050020C80C00200048004049000020D2
:103D00000018014000140140002010BD10B5022130
:103D1000FE48FDF738FA08B9012010BD0020FCE785
:103D200010B50421F948FDF72EFA08B9012010BD9D
:103D30000020FCE710B50821F448FDF724FA08B983
:103D4000012010BD0020FCE710B51021EF48FDF761
:103D50001AFA08B9012010BD0020FCE710B5202197
:103D6000EA48FDF710FA08B9012010BD0020FCE771
:103D700010B5072000F09FFE40F2DC51884201DAC6
:103D8000012010BD0020FCE710B54021E048FDF700
:103D9000FAF9012802D1072000F08DFE002010BDA5
:103DA00010B5072000F087FE40F2DC51884202DDAA
:103DB000062000F080FE002010BD10B54FF4004139
:103DC000D248FDF7E0F908B9002010BD0120FCE75A
:103DD000D04890F90000D0490978884201DA0120E2
:103DE00070470020FCE7CD480078CD49097888422B
:103DF00001DD012070470020FCE7C64890F9000073
:103E0000142874DBC34890F9000028286FDCC548EB
:103E1000B0F900000A2190FBF1F0BE4991F90010C1
:103E2000081A142803DB0C20BC49087087E0BD4841
:103E3000B0F900000A2190FBF1F0B64991F90010A9
:103E4000081A112803DB0D20B449087077E0B54843
:103E5000B0F900000A2190FBF1F0AE4991F9001091
:103E6000081A0F2803DB0E20AC49087067E0AD4844
:103E7000B0F900000A2190FBF1F0A64991F9001079
:103E8000081A0E2803DB0F20A449087057E0A54844
:103E9000B0F900000A2190FBF1F09E4991F9001061
:103EA000081A0C2803DB10209C49087047E09D4845
:103EB000B0F900000A2190FBF1F0964991F9001049
:103EC000081A0B2803DB12209449087037E0954844
:103ED000B0F900000A2190FBF1F08E4991F9001031
:103EE000081A092804DB14208C49087027E023E015
:103EF0008C48B0F900000A2190FBF1F0854991F956
:103F00000010081A082803DB17208449087016E0FF
:103F10008448B0F900000A2190FBF1F07D4991F945
:103F20000010081A072803DB1A207C49087006E0F5
:103F30001E207A49087002E00C207849087070470A
:103F40002DE9FE4F0C247848007801287ED100200E
:103F500075490870032000F0AEFD02907348B0F977
:103F6000000002F007FA0190029802F003FA83467B
:103F70006F48B0F9000002F0FDF96E49009002F0C0
:103F80001BF98246594602F00DFA8146019902F06A
:103F9000B1F88046684902F005FA07463846FFF74F
:103FA00008FA00B25F490880042000F084FD029006
:103FB0006248B0F9000002F0DDF98246029802F092
:103FC000D9F901905E48B0F9000002F0D3F98346B8
:103FD000584902F0F1F88146019902F0E3F9804670
:103FE000514602F087F807463846FFF7E2F940B23B
:103FF00048490870052000F05EFD02905148B0F974
:10400000000002F0B7F90190029802F0B3F982467D
:104010004D48B0F9000002F0ADF98346454902F081
:10402000CBF88146514602F0BDF98046019902F075
:1040300061F807463846FFF7BCF940B243490870BB
:10404000344800780978401A40B200E0E2E0404984
:104050000870FFF7D2FE0024D9E0052C02DA2425EF
:10406000512601E00125012604EB4401394A52F8AA
:104070003100804701280CD104EB4400354901EBA5
:10408000C0004068401C04EB4401324A02EBC1010D
:10409000486004EB44002F4901EBC0008068401CDD
:1040A00004EB44012B4A02EBC101886004EB44009D
:1040B000114601EBC0004068A84260DB012004EB20
:1040C000440102EBC1010873002004EB440102EB40
:1040D000C101486004EB440102EBC101886004EBBC
:1040E0004400114601EBC0000069007801283DD171
:1040F00004EB440001EBC0004069007810F0010FB0
:1041000033D1012004EB440126E0000000140140FB
:1041100000180140370100203D0100203B01002034
:104120003C010020620100202500002058010020F1
:104130005601002000401C46000020416001002084
:104140005E0100205C0100205A010020380100209F
:104150003A010020BC04002002EBC101496908704B
:10416000DB4908700020DB4908704FE0002004EBB9
:104170004401D94A02EBC1014969087046E004EBE9
:104180004400D54901EBC000806804EB4401D24AE9
:1041900002EBC1014968401AB04237DB002004EB52
:1041A000440102EBC101087304EB440102EBC101BD
:1041B000486004EB440102EBC101886004EB440059
:1041C000114601EBC00000690078012816D104EB0C
:1041D000440001EBC0004069007810F0010F15D0D9
:1041E000802004EB440102EBC10149690870012001
:1041F000B74908700020B749087007E0002004EBB9
:104200004401B54A02EBC10149690870641C0C2CD9
:10421000FFF623AFBDE8FE8F70B54A1E0224C4EB43
:104220004104631E1446521E065D1C465B1E065565
:1042300010E0845C04F00F04A84D2E5D1C465B1E4C
:1042400006551446521E045D05EB141426781C46D0
:104250005B1E0655002AECD170BD10B50C23002161
:104260000FE001F12600C0EB00109D4C2044D0F877
:1042700003000278802A01D0012A01D1012010BD5B
:10428000491C9942EDDB0020F9E7F0B5014600201A
:104290000C2400222BE002F12605C5EB0515904EFB
:1042A0003544D5F803502B78802B01D0012B1DD13C
:1042B00004270546401C4F5502F12605C5EB0515A0
:1042C000874E35446F780546401C4F5502F1260550
:1042D000C5EB05153544B5F801502F0A0546401CBD
:1042E0004F5503F001070546401C4F55521CA24292
:1042F000D1DBF0BD2DE9F04106467A4C0E254FF09A
:104300000008002721202070022060700120A0708A
:1043100075480068C4F8030074480078E071744878
:104320000088208172480088401C714908808020E4
:10433000A0720120E0722073FF2060730420A0733C
:104340004121E1730121217466742D1D012E04D1D8
:1043500004F11200FFF799FF80464544681E81B2C0
:104360006048401CFEF75FFF074628466D1C5D490C
:104370000F543A0A28466D1C0A54212228466D1C07
:104380000A5429465748FFF747FF0220C0EB450073
:10439000584908601A205349564A12688854002127
:1043A000504A54480068401C115452480068BDE807
:1043B000F08110B5002420214F48FCF7E4FE18B925
:1043C00000204E49087008E04C48007828B90120C8
:1043D0004A4908700220FFF78DFF10214648FCF77C
:1043E000D2FE18B900204649087008E04448007819
:1043F00028B90120424908700320FFF77BFF0821FC
:104400003D48FCF7C0FE18B900203E49087008E09E
:104410003C48007828B901203A4908700420FFF789
:1044200069FF04213448FCF7AEFE18B90020364974
:10443000087008E03448007828B901203249087033
:104440000520FFF757FF22480078012817D1294897
:104450000068A0B900201E490870FFF7FEFE012881
:104460000DD1FFF747FF012028490870FEF755FBE3
:104470002749086017480078401C164908702348EF
:104480000078012822D11348007809281EDAFEF7A7
:1044900044FB04460F480078032190FBF1F201FB36
:1044A000120048B11A48006800F1B400001B0DD595
:1044B00001200749087009E01548006842F63021DC
:1044C0000844001B02D5012001490870002010BDDE
:1044D000F005002048000020BC04002028660008E9
:1044E00064010020C80E0020B1000020B5000020AB
:1044F000F2050020EC050020001801403C000020DF
:104500003D0000203E0000203F0000204000002031
:104510004400002070B504460D460026FCF789FAD9
:1045200001202B4908603420FCF718FD00202949A0
:1045300008600FE027490968274A4FF4006303FB2E
:104540000120FCF7B5FA2549087022480068401C94
:10455000204908601F4800681D490968884203D245
:104560001E4800780428E5D01B481D4908600EE06D
:104570003046761C54F8201019480068FCF768FB98
:104580001649087016480068001D15490860AE42BB
:1045900003DA124800780428EAD0FCF757FA002022
:1045A00070BD30B5024600230B480D4C20600BE077
:1045B0000B480068056818465B1C42F82050084804
:1045C0000068001D064C20608B42F1DB002030BDEE
:1045D00000060020F405002000F80308040600206F
:1045E000F805002070B5054600241BE045FA04F0EC
:1045F00010F0010F05D04FF40061CB48FCF7DDFD52
:1046000004E04FF40061C848FCF7D9FD4FF4806125
:10461000C548FCF7D2FD4FF48061C348FCF7CFFDDD
:10462000601CC4B2082CE1DB70BD70B5002400250D
:10463000002600BF15E04FF40061BB48FCF7A3FD66
:10464000064606FA04F02843C5B24FF48061B64826
:10465000FCF7B3FD4FF48061B348FCF7B0FD601C7C
:10466000C4B2082CE7DB284670BD70B505460C4681
:104670004FF48051AC48FCF7A2FD4FF48061AA488A
:10468000FCF79DFD4FF48051A748FCF796FD4FF4D1
:104690000060A6490880032088701020C870A248D6
:1046A000FCF7E0FC2846FFF79DFF2046FFF79AFF46
:1046B0004FF480619C48FCF780FD4FF480519A488C
:1046C000FCF77DFD70BD70B504464FF480519648EF
:1046D000FCF775FD4FF480619348FCF770FD4FF4D3
:1046E00080519148FCF769FD4FF400608F490880C4
:1046F000032088701020C8708B48FCF7B3FC44F08E
:104700000100FFF76FFF4FF4006088490880032025
:1047100088704820C8708448FCF7A4FCFFF785FF28
:1047200005464FF480618048FCF747FD4FF4805107
:104730007D48FCF744FD284670BD10B5044624B101
:1047400010218E20FFF791FF03E000218E20FFF75C
:104750008CFF10BD10B504468020FFF7B4FF6071D8
:104760008220FFF7B0FF20718420FFF7ACFFE070DC
:104770008620FFF7A8FFA0708820FFF7A4FF6070D5
:104780008C20FFF7A0FF207010BD10B5044600205C
:10479000FFF7D3FF61798020FFF767FF217982203F
:1047A000FFF763FFE1788420FFF75FFFA1788620A1
:1047B000FFF75BFF61788820FFF757FF21788C2097
:1047C000FFF753FF0120FFF7B8FF10BD10B501211F
:1047D0001020FCF71DFF4FF4E050544908800320DF
:1047E00088701020C8705048FCF73CFC4FF4806182
:1047F0004D48FCF7E4FC4FF400614B48FCF7DFFC4C
:104800004FF480514848FCF7DAFC10BD70B50446FF
:1048100000218E20FFF729FF4FF480514248FCF71A
:10482000CEFC4FF480614048FCF7C9FC4FF4805146
:104830003D48FCF7C2FC4FF400603C49088003206F
:1048400088701020C8703848FCF70CFCBE20FFF7B9
:10485000C9FE082505E02078FFF7C4FE641C681E29
:10486000C5B2002DF7DC4FF480612F48FCF7A5FCA2
:104870004FF480512C48FCF7A2FC70BD70B5044683
:104880004FF480512848FCF79AFC4FF48061264889
:10489000FCF795FC4FF480512348FCF78EFC4FF455
:1048A000006022490880032088701020C8701E48CC
:1048B000FCF7D8FBBF20FFF795FE082510E04FF46A
:1048C00000601A490880032088704820C870164884
:1048D000FCF7C8FBFFF7A9FE2070641C681EC5B278
:1048E000002DECDC4FF480610F48FCF766FC4FF4C0
:1048F00080510D48FCF763FC70BD70B50446802004
:10490000FFF7E1FE05460020FFF717FF2CB145F049
:1049100080018020FFF7A9FE04E005F07F018020E0
:10492000FFF7A3FE70BD0000001001400606002046
:1049300000B591B04FF40040FCF7D1FD01214FF4D8
:104940000570FCF765FEE020ADF8140000208DF83E
:10495000170005A96948FCF785FB3720ADF814005E
:1049600000208DF8170005A96548FCF77BFB0121A5
:104970000846FCF740FE6348FBF70EFF62480690CE
:1049800062480790002008900820099000200A90B3
:1049900080200B9040000C9080000D9020200E9005
:1049A00000020F900020109006A95648FBF796FFD2
:1049B00001215448FBF7BDFF0020009001208DF835
:1049C00004008DF805004FF4602002900020039051
:1049D00008208DF8100069464B484C38FBF7DBFC8B
:1049E00007230122052148484C38FBF76CFD0723BB
:1049F0000222062144484C38FBF765FD07230322B9
:104A0000194641484C38FBF75EFD072304220A2172
:104A10003D484C38FBF757FD072305220B213A4848
:104A20004C38FBF750FD072306220C2136484C3842
:104A3000FBF749FD07231A460E2133484C38FBF794
:104A400042FD072308220F212F484C38FBF73BFD7E
:104A500001212D484C38FBF7D5FC01212A484C3860
:104A6000FBF7C5FC0120FBF753FE27484C38FBF74A
:104A7000E0FC00BF24484C38FBF7E0FC0028F9D1EB
:104A800021484C38FBF7E4FC00BF1F484C38FBF7CB
:104A9000E4FC0028F9D101211B484C38FBF7E7FC66
:104AA00000BF0220FBF760FF0028FAD00220FBF7CE
:104AB0006EFF11B000BDF0B50246002000210023BA
:104AC000002400BF14E0114E36F8126040F6E447AF
:104AD00006FB07F5EE1705EB1656301304440021CC
:104AE00001E000BF491C40F6FF75A942F9DB5B1CE1
:104AF0000A2BE8DB0A2594FBF5F0F0BD0008014025
:104B000000100140080002404C240140C818002059
:104B10001FB536208DF80C0000208DF80D00012007
:104B20008DF80E008DF80F0003A8FBF7A4FB012100
:104B30001020FCF77AFD4FF4FA60ADF80400002075
:104B40008DF8080048F69F40ADF800000020ADF851
:104B50000600ADF8020069460848FCF795FE012101
:104B60000648FDF745FC012211460448FDF703FA0B
:104B700001210248FDF7E4F91FBD000000100040CC
:104B800010B54021FE48FCF718FB10BD10B54021C0
:104B9000FB48FCF714FB10BDFA490870704770B56C
:104BA00000240025FFF7F2FF00BF0AE0FCF7AFFB8F
:104BB000002501E000BF6D1C4FF6FF708542F9D360
:104BC000641C40F2FF308442F0D30020FFF7E4FF82
:104BD0000020ED490870FFF7D3FF70BD08B58022B3
:104BE000EA49EB48FEF7E4F901212020FCF710FD2B
:104BF0004020ADF8000003208DF8020010208DF851
:104C000003006946DE48FCF72DFAFFF7B9FF0920DB
:104C1000E049087008BD0020DF4908607047DE49A0
:104C200009680143DC4A11607047DB490968814328
:104C3000D94A116070470146D7480068084201D040
:104C4000012070470020FCE770B505460C46FDF7D3
:104C500064FF06462846FFF7EEFF08B1002070BD4E
:104C6000A01B01D50120FAE70220F8E72DE9F04169
:104C700004460D4600260027281F81B2601CFEF75F
:104C8000D2FA0646E81E2654310AA81E21542121D4
:104C9000681E2154A91E601CFEF72AFA074621202F
:104CA00020702121781C2154B81CBDE8F0812DE929
:104CB000F84F04460F460025681E00904FF000098B
:104CC0004FF0000A1DE0B9F1000F03D0B9F1010F58
:104CD00014D106E0605D212802D12E464FF0010973
:104CE0000DE0605D212808D1A8464FF00209454635
:104CF000A8EB0600401C00903D4600E000BF00BF4E
:104D00006D1CBD42DFDB00980A2833DD009A911E3E
:104D1000721CA018FEF73FFA00900098801C0090CB
:104D200021210098401E215420460099FEF7C6FC20
:104D300001281FD1A01902226946FEF75BFE8246B8
:104D4000BAF1000F16DBA0190099FFF78FFF934906
:104D50000860A11991480268914800F0D7FC1A2018
:104D60008F498E4A1268885400218D4A8B4800680A
:104D7000401C11540098BDE8F88F10B589498A4845
:104D800000F067FCD0B98949874800F062FCA8B9F7
:104D90008749854800F05DFC80B98649824800F06B
:104DA00058FC58B98449804800F053FC30B9834915
:104DB0007D4800F04EFC08B9002010BD0120FCE742
:104DC0002DE9FC5F0026002700250024A046A1460F
:104DD000A24600200190834600907948FEF71CF916
:104DE0000646002E7ED07748774A126881183246F0
:104DF0007348FEF73DF97349734A126888183146C3
:104E0000FEF787F871A16F4800F023FC00286AD0F4
:104E10006FA16C4800F01DFC30B101206E49087094
:104E20000820FFF7FCFE7EE06CA1664800F011FC54
:104E300005002DD06BA1E81D00F00BFC040009D08B
:104E40001421594800F0D9FC601BC21FE91D5648C7
:104E500000F05CFC64A1E81D00F0FBFB040062D0E4
:104E600061A1A01C00F0F5FB5FEA00085BD0FFF732
:104E700084FF012807D1A8EB0400A0F1020A5146E3
:104E8000A01CFFF714FF4FF48070FFF7C8FE4AE044
:104E900056A14C4800F0DDFB05000FD051A1A81D24
:104EA00000F0D7FB04003ED06078312802D0607853
:104EB000342838D18020FFF7B2FE34E04DA14148BC
:104EC00000F0C7FB05002BD000BF46A1E81D00F095
:104ED000C0FB04001AD04948002101808170601B8A
:104EE000C21F01E0EFE027E0E91D444800F00EFC9E
:104EF000424800F0A1FB4249087001222448FEF715
:104F000094F83F4801783FA0FEF7E9F939A120461F
:104F100000F09FFB0500D8D10120FFF780FE02E0E2
:104F20000120FFF77CFE4FF48071264800F065FCFD
:104F3000002025490860F5E038A1224800F089FBEF
:104F400058B10020204908604FF480711D4800F0DE
:104F500054FC0220FFF763FEE4E032A1194800F0A0
:104F600078FB58B10020184908604FF4807115484B
:104F700000F043FC2020FFF752FED3E058E0000091
:104F800000140140B006002010060020E8180020A0
:104F9000D818002011060020AC0600200C060020C6
:104FA00068190020B6000020681A0020CA000020FE
:104FB000DE000020F2000020060100201A0100207F
:104FC000A80A00207C1A0020A40600204F4B0000F5
:104FD0004855415745490000010700205E48434DB0
:104FE00047523A002C0000000D0A00002B435245A6
:104FF000473A00005E48434D474C3A000207002004
:10500000B10600207075736820736D7320696E643B
:105010006578203D2025640A000000004552524F6B
:10502000520000005E48434D4753533A00000000D1
:10503000F2A1F54800F00DFB58B10020F3490860DB
:105040004FF48071F04800F0D8FB4020FFF7E7FDF7
:1050500068E0EFA1EC4800F0FCFA5FEA000939D003
:10506000AFF27C01484600F0F4FA05002CD0AFF214
:105070008C01484600F0EDFA040053D0AFF29801DD
:10508000601C00F0E6FA5FEA00084BD000200190B7
:10509000A8EB0400A0F1010B5A46611C01A800F026
:1050A00035FB01A800F0C8FAC0B2009001226946A1
:1050B000D948FDF7BAFF0020D44908604FF4807149
:1050C000D14800F09AFB2DE0D04800683044CF4929
:1050D000086027E0D1A1CC4800F0BBFA58B11020FD
:1050E000FFF79DFD0020C94908604FF48071C64854
:1050F00000F083FB16E0C54800683044C3490860EF
:1051000000270BE0C048C05D38B90020BF490860E7
:105110004FF48071BC4800F070FB7F1CBB480068F6
:105120008742EFD3BDE8FC9F10B50224BC4ABD4BBB
:105130001B7802EB0310BB4B1B7802EB0312D16808
:10514000884704466CB9B7480078401CB5490870D8
:1051500008460078B4490978884202D10120FFF757
:105160001BFD10BD70B500250224B048007830B199
:1051700001281FD002282BD0032847D135E0A648AC
:10518000FDF74AFF05468DB10122A949A248FDF766
:105190006FFFA7480278A7A1AA4800F09FF9A94885
:1051A000A94908600120A149087002E00220FFF728
:1051B000F3FC2FE0A448C168884704461CB90220CC
:1051C0009A49087003E0012C01D1FFF7E8FC21E0C7
:1051D000974802789DA19B4800F080F999489E4924
:1051E000086003209149087000BF9B48C168884748
:1051F000044634B900208D4908700220FFF7CCFC2A
:1052000003E0012C01D1FFF7CAFC03E0002087492D
:10521000087000BF00BF70BD10B502248F48007831
:1052200020B101282AD002285BD139E08C480068DF
:1052300070B18C4A8CA1904800F050F98E488F498B
:1052400008608F488F49086001208449087014E085
:105250008D48006870B18D4A83A1874800F03EF9FF
:105260008548864908608A488649086001207B494C
:10527000087002E00120FFF78FFC36E07F48C1682C
:10528000884704461CB902207449087007E0012CC5
:1052900005D1FFF784FC15217EA0FDF73AFE24E03E
:1052A0007848C1688847044684B900206B49087073
:1052B0006B48006818B100206949086010E0724826
:1052C000006868B100207049086009E0012C06D12F
:1052D000FFF765FC1A2175A0FDF71BFE00E000BF7B
:1052E00003E000205D49087000BF00BF10BD10B58D
:1052F0007548007820B1012805D0022809D105E0C1
:10530000FFF712FF09E0FFF72DFF06E0FFF784FF2C
:1053100003E00020FFF740FC00BF00BF10BD70B5E8
:10532000044602256948007898B96068FFF77DFC5B
:10533000206800F0CCF90646324665482168FDF742
:10534000F5FD012061490870FDF7E7FB6149086040
:1053500014E0227A5F4B1B68D1186068FFF774FC79
:10536000054635B96068FFF760FC002057490870B2
:1053700004E0012D02D1002054490870284670BD78
:105380002DE9F0410446022502265348007880B9F1
:10539000206800F09CF907463A464D482168FDF721
:1053A000C5FD01204C490870FDF7B7FB494908606D
:1053B00021E0227A474B1B68D1186068FFF744FC54
:1053C000054635B96068FFF730FC00204249087097
:1053D00011E0012D03D100203F4908700BE0022DA0
:1053E00009D1207A3B4A126881184020FFF72CFC33
:1053F000064606B903252846BDE8F0815E48434DC0
:105400004753463A000000007C1A0020A406002002
:105410002B434D54493A0000D81800203E000000AC
:10542000140600201006002011060020D4060020DB
:10543000D506002041545E48434D47523D25640D3A
:10544000000000007C1B0020B406002041542B43C8
:105450004D47443D25640D00C4060020D6060020BB
:10546000EC0500201A01002041545E48434D47538B
:105470003D222573220D0000BC1B0020D806002011
:10548000C80E0020E80600200C060020681A002044
:105490006819002061745F68636D67732074696DBB
:1054A00065206F7574210D0A0000000061745F684B
:1054B000636D67735F646174612074696D65206FEB
:1054C0007574210D0A000000B0060020F8060020C7
:1054D00000440040FC060020000700200FB41CB56B
:1054E000074B06AA7B4469460090059800F015FA20
:1054F0000020694600F024FA1CBC5DF814FB000093
:10550000590400002DE9F0410E46044600202062B7
:105510002046E168884730B3252805D0D4E9012129
:105520009047206A401CF2E7E16820460027884740
:10553000050018D0A5F14100192802D820354FF4F4
:1055400000673246294620462760FAF74BFE40B1F5
:10555000012804D0F61D26F007060836D8E7361DC8
:10556000D6E72846DAE7206ABDE8F08170B50C4638
:105570000546012A05D02878800600D5EA6900236F
:1055800002E0012305E05B1C934202D2E05C0028AC
:10559000F9D1A869E618C01AA861286A18442862D7
:1055A0002846AFF3008004E0D5E9012114F8010B8F
:1055B0009047B442F8D32846AFF3008070BD000096
:1055C0002DE9F0410646002410687529314616A5DC
:1055D00011D0AFF30080002803DAC0F1000013A55A
:1055E00007E031688A0701D511A502E0490704D513
:1055F00010A5012401E0AFF3008000210A2306F189
:10560000240707E0B0FBF3F203FB120030307854BC
:105610001046491C0028F5D123462A463046BDE8ED
:10562000F04100F019B90000000000002D0000005A
:105630002B0000002000000070B5064600F008F9BD
:105640000468054630460A22002100F094F92C60D7
:1056500070BD30B505460B462A4613F8014B12F8CB
:10566000010B08B1A042F8D01CB1002802D06D1C7B
:10567000F1E7284630BD40EA010310B59B070FD182
:10568000042A0DD310C808C9121F9C42F8D020BAB2
:1056900019BA884201D9012010BD4FF0FF3010BD6A
:1056A0001AB1D30703D0521C07E0002010BD10F838
:1056B000013B11F8014B1B1B07D110F8013B11F8FE
:1056C000014B1B1B01D1921EF1D1184610BD10B524
:1056D000431C02E010F8011B71B18107FAD14FF0B1
:1056E000013202C88C1A8C4314EAC211F9D0C01AD4
:1056F0000A0603D0C01E10BDC01A10BD0A0401D096
:10570000801E10BD0902FCD0401E10BD032A40F2CD
:10571000308010F0030C00F0158011F8013BBCF153
:10572000020F624498BF11F801CB00F8013B38BF6B
:1057300011F8013BA2F1040298BF00F801CB38BF79
:1057400000F8013B11F0030300F02580083AC0F097
:10575000088051F8043B083A51F804CBA0E808103F
:10576000F5E7121D5CBF51F8043B40F8043BAFF372
:105770000080D20724BF11F8013B11F801CB48BFCC
:1057800011F8012B24BF00F8013B00F801CB48BF02
:1057900000F8012B704710B5203AC0F00B80B1E83B
:1057A0001850203AA0E81850B1E81850A0E8185056
:1057B000BFF4F5AF5FEA027C24BFB1E81850A0E85F
:1057C000185044BF18C918C0BDE810405FEA827C79
:1057D00024BF51F8043B40F8043B08BF7047D20790
:1057E00028BF31F8023B48BF11F8012B28BF20F831
:1057F000023B48BF00F8012B70474FF0000200B594
:10580000134694469646203922BFA0E80C50A0E8E3
:105810000C50B1F12001BFF4F7AF090728BFA0E891
:105820000C5048BF0CC05DF804EB890028BF40F85D
:10583000042B08BF704748BF20F8022B11F0804F9F
:1058400018BF00F8012B7047704770477047000081
:1058500000487047FC1B00202DE9F0470D46994693
:105860009246044600F124080168880604D5E069E0
:1058700021F01001216000E00120A84202DDA0EB30
:10588000050700E00027A16907EB050202EB09000C
:10589000A1EB0000A0612078C00602D42046AFF33F
:1058A0000080002608E0D4E901211AF8060090479C
:1058B000206A401C761C20624E45F4DB2078C0062E
:1058C0000AD52046AFF3008006E0D4E9012130205C
:1058D0009047206A401C2062381EA7F10107F4DCC3
:1058E00007E0D4E9012118F805009047206A401C20
:1058F0002062281EA5F10105F3DC2046AFF30080ED
:105900002078000602D50220BDE8F0870120FBE7E1
:1059100001694A1C02610878704700B58FB0CDE973
:1059200001310021059105497944CDE90310114663
:105930006846FFF7E7FD0FB000BD0000E5FFFFFF81
:105940000A6802F8010B0A60704710B5436913B189
:10595000AFF3008001E0FFF709FE012010BD1278CF
:1059600000F124010A7000224A700122EDE711685B
:105970004FF0FF32E9E72DE9F04791460F468046A8
:105980000446002614F8015B2DB100F031F80068E0
:10599000405DC007F6D12B2D02D02D2D18D0641EEE
:1059A0004A463946204600F02BF827B13968A14213
:1059B00001D1C7F800804FF0020471050BD54042B9
:1059C000002803DDFFF744FF0460A007BDE8F0876F
:1059D00046F48066E4E70028F8DAFFF739FF046050
:1059E0006FF00040F2E7000000487047FC1B002009
:1059F00010B500F079F8001D10BD00BFAD0100002A
:105A00002DE9F05F824615468B4600270AF1010416
:105A1000B9460078302801D09DB113E014F8010B8D
:105A20000127782803D0582801D045B10AE00DB1EC
:105A3000102D07D1002714F8010B102502E00825CE
:105A400000E00A250026B0460EE005FB080005FB35
:105A500006F101271FFA80F801EB1046B6F5803FEA
:105A600000D3B94614F8010B294600F041F800288C
:105A7000EBDABBF1000F05D00FB1641E00E0544615
:105A8000CBF80040B9F1000F06D0FFF7E1FE02218C
:105A90000160C81EBDE8F09F48EA0640FAE7754677
:105AA000FFF7A2FFAE4605006946534620F0070007
:105AB000854618B020B5FAF7C7FBBDE820404FF087
:105AC00000064FF000074FF000084FF0000B21F0E8
:105AD0000701AC46ACE8C009ACE8C009ACE8C009B5
